:020000040000FA
:10000000680400206D02000071020000730200000D
:100010007502000077020000790200000000000075
:100020000000000000000000000000007B02000053
:100030007D020000000000007F020000810200003D
:10004000830200008302000083020000830200009C
:10005000830200008302000083020000830200008C
:10006000830200008302000083020000830200007C
:10007000830200008302000083020000830200006C
:10008000830200008302000083020000830200005C
:1000900083020000DD0400008302000083020000F0
:1000A000830200008302000083020000830200003C
:1000B000830200008302000083020000830200002C
:1000C000830200008302000083020000830200001C
:1000D000830200008302000083020000830200000C
:1000E00083020000830200008302000083020000FC
:1000F00083020000830200008302000083020000EC
:1001000083020000830200008302000083020000DB
:1001100083020000830200008302000083020000CB
:1001200083020000830200008302000083020000BB
:1001300083020000830200008302000083020000AB
:1001400000000000000000000000000000000000AF
:10015000830200008302000083020000830200008B
:10016000000000000000000000000000000000008F
:10017000000000000000000000000000000000007F
:10018000000000000000000000000000000000006F
:10019000000000000000000000000000000000005F
:1001A000000000000000000000000000000000004F
:1001B000830200008302000083020000830200002B
:1001C000830200008302000083020000830200001B
:1001D000830200008302000083020000830200000B
:1001E00083020000830200008302000083020000FB
:1001F00083020000830200008302000083020000EB
:10020000830200008302000083020000000000005F
:1002100083020000830200008302000083020000CA
:1002200083020000830200008302000083020000BA
:1002300083020000830200008302000083020000AA
:10024000830200008302000083020000830200009A
:10025000830200008302000083020000830200008A
:1002600083020000830200008302000000F00AB84D
:10027000FEE7FEE7FEE7FEE7FEE7FEE7FEE7FEE756
:10028000FEE7FEE700F002F800F042F814A696E858
:10029000000CB244B344DA4501D100F039F8BAE8B1
:1002A0000F000FA696E83000A5EB040504EB060747
:1002B000AAEB0704A7F101074FEA15154FEA34141A
:1002C000A4F10104AC4201D300F022F813F0010FB5
:1002D00018BFFB1A43F0010300F001F8DBE71847F1
:1002E000F402000004030000704700000023002413
:1002F00000250026103A28BF78C1FBD8520728BF36
:1003000030C148BF0B6070471FB51FBD10B510BD91
:1003100000F029F81146FFF7F7FF00F047F900F069
:1003200047F803B4FFF7F2FF03BC00F04FF80000FA
:1003300072B6704762B67047EFF3108072B67047BE
:1003400080F31088704730BF704702480249014A65
:10035000024B7047680000206804002068000020FD
:10036000704770477047754600F02CF8AE460500A0
:100370006946534620F00700854618B020B5FFF7C0
:10038000E4FFBDE820404FF000064FF000074FF0BB
:1003900000084FF0000BAC46ACE8C009ACE8C0095F
:1003A000ACE8C009ACE8C00921F007018D467047F0
:1003B00010B50446AFF300802046BDE81040FFF7BB
:1003C000B0BF00000048704700000020014918201D
:1003D000ABBEFEE7260002007047000081B04EF27F
:1003E0007001C4F20F010091086840F000400860FD
:1003F000086840F4006008604EF26002C4F20F0228
:10040000106820F4F8601060106800F5A8601060B3
:10041000086820F07000086008680860086820F428
:1004200000500860086840F08040086008681822A2
:1004300062F39C500860FFE74EF25000C4F20F00D8
:1004400000684006002801D4FFE7F5E74EF270018E
:10045000C4F20F01086820F40060086001B0704722
:100460004EF20861C4F20F01086840F020000860F5
:10047000FFE74EF20860C4F20F00006800F02000B1
:10048000202801D0FFE7F4E745F20041C4F2020161
:10049000086840F00200086045F22041C4F2020101
:1004A000086820F00200086045F21C51C4F2020105
:1004B000086840F00200086045F22C51C4F20201C5
:1004C000086820F0F000086045F22851C4F20201EB
:1004D000086840F0020008607047000080B541F2F3
:1004E0002401C4F203010120086040F26000C2F25E
:1004F00000000068804780BD82B0019000914EF2FC
:100500000461C4F20F01086840F00200086001981D
:1005100040F26001C2F20001086041F20C01C4F235
:1005200003010020086041F20002C4F2030204202B
:10053000106041F20402C4F203020220106000982D
:10054000013841F22802C4F20302106041F238027D
:10055000C4F203026320106041F22402C4F20302D9
:100560000120106041F21802C4F2030210604EF242
:100570001443CEF200031A684FF00A0C6CF30F32EA
:100580001A604EF20013CEF200034FF400121A600C
:10059000086002B07047000045F20801C4F2020191
:1005A000086880F0020008607047000080B582B0E3
:1005B00000200190FFF754FFFFF710FF40F2995021
:1005C000C0F2000049F64041FFF796FFFFE7FFF752
:1005D000BAFEFCE7E405000000000020680400000B
:0405E000EC02000029
:040000050000026D88
:00000001FF
